{
  "contractName": "KryptoBirdz",
  "abi": [
    {
      "inputs": [],
      "stateMutability": "nonpayable",
      "type": "constructor"
    },
    {
      "anonymous": false,
      "inputs": [
        {
          "indexed": true,
          "internalType": "address",
          "name": "_owner",
          "type": "address"
        },
        {
          "indexed": true,
          "internalType": "address",
          "name": "_approved",
          "type": "address"
        },
        {
          "indexed": true,
          "internalType": "uint256",
          "name": "_tokenId",
          "type": "uint256"
        }
      ],
      "name": "Approval",
      "type": "event"
    },
    {
      "anonymous": false,
      "inputs": [
        {
          "indexed": true,
          "internalType": "address",
          "name": "_from",
          "type": "address"
        },
        {
          "indexed": true,
          "internalType": "address",
          "name": "_to",
          "type": "address"
        },
        {
          "indexed": true,
          "internalType": "uint256",
          "name": "_tokenId",
          "type": "uint256"
        }
      ],
      "name": "Transfer",
      "type": "event"
    },
    {
      "inputs": [
        {
          "internalType": "string",
          "name": "",
          "type": "string"
        }
      ],
      "name": "_kryptoBirdzExists",
      "outputs": [
        {
          "internalType": "bool",
          "name": "",
          "type": "bool"
        }
      ],
      "stateMutability": "view",
      "type": "function",
      "constant": true
    },
    {
      "inputs": [
        {
          "internalType": "address",
          "name": "_to",
          "type": "address"
        },
        {
          "internalType": "uint256",
          "name": "_tokenId",
          "type": "uint256"
        }
      ],
      "name": "approve",
      "outputs": [],
      "stateMutability": "nonpayable",
      "type": "function"
    },
    {
      "inputs": [
        {
          "internalType": "address",
          "name": "_owner",
          "type": "address"
        }
      ],
      "name": "balanceOf",
      "outputs": [
        {
          "internalType": "uint256",
          "name": "",
          "type": "uint256"
        }
      ],
      "stateMutability": "view",
      "type": "function",
      "constant": true
    },
    {
      "inputs": [
        {
          "internalType": "uint256",
          "name": "",
          "type": "uint256"
        }
      ],
      "name": "kryptoBirdz",
      "outputs": [
        {
          "internalType": "string",
          "name": "",
          "type": "string"
        }
      ],
      "stateMutability": "view",
      "type": "function",
      "constant": true
    },
    {
      "inputs": [],
      "name": "name",
      "outputs": [
        {
          "internalType": "string",
          "name": "",
          "type": "string"
        }
      ],
      "stateMutability": "view",
      "type": "function",
      "constant": true
    },
    {
      "inputs": [
        {
          "internalType": "uint256",
          "name": "_tokenId",
          "type": "uint256"
        }
      ],
      "name": "ownerOf",
      "outputs": [
        {
          "internalType": "address",
          "name": "",
          "type": "address"
        }
      ],
      "stateMutability": "view",
      "type": "function",
      "constant": true
    },
    {
      "inputs": [
        {
          "internalType": "bytes4",
          "name": "interfaceID",
          "type": "bytes4"
        }
      ],
      "name": "supportsInterface",
      "outputs": [
        {
          "internalType": "bool",
          "name": "",
          "type": "bool"
        }
      ],
      "stateMutability": "view",
      "type": "function",
      "constant": true
    },
    {
      "inputs": [],
      "name": "symbol",
      "outputs": [
        {
          "internalType": "string",
          "name": "",
          "type": "string"
        }
      ],
      "stateMutability": "view",
      "type": "function",
      "constant": true
    },
    {
      "inputs": [
        {
          "internalType": "uint256",
          "name": "index",
          "type": "uint256"
        }
      ],
      "name": "tokenByIndex",
      "outputs": [
        {
          "internalType": "uint256",
          "name": "",
          "type": "uint256"
        }
      ],
      "stateMutability": "view",
      "type": "function",
      "constant": true
    },
    {
      "inputs": [
        {
          "internalType": "address",
          "name": "owner",
          "type": "address"
        },
        {
          "internalType": "uint256",
          "name": "index",
          "type": "uint256"
        }
      ],
      "name": "tokenOfOwnerByIndex",
      "outputs": [
        {
          "internalType": "uint256",
          "name": "",
          "type": "uint256"
        }
      ],
      "stateMutability": "view",
      "type": "function",
      "constant": true
    },
    {
      "inputs": [],
      "name": "totalSupply",
      "outputs": [
        {
          "internalType": "uint256",
          "name": "",
          "type": "uint256"
        }
      ],
      "stateMutability": "view",
      "type": "function",
      "constant": true
    },
    {
      "inputs": [
        {
          "internalType": "address",
          "name": "_from",
          "type": "address"
        },
        {
          "internalType": "address",
          "name": "_to",
          "type": "address"
        },
        {
          "internalType": "uint256",
          "name": "_tokenId",
          "type": "uint256"
        }
      ],
      "name": "transferFrom",
      "outputs": [],
      "stateMutability": "nonpayable",
      "type": "function"
    },
    {
      "inputs": [
        {
          "internalType": "string",
          "name": "_kryptoBird",
          "type": "string"
        }
      ],
      "name": "mint",
      "outputs": [],
      "stateMutability": "nonpayable",
      "type": "function"
    }
  ],
  "bytecode": "0x60806040523480156200001157600080fd5b506040518060400160405280600b81526020017f4b727970746f426972647a0000000000000000000000000000000000000000008152506040518060400160405280600481526020017f4b52425a000000000000000000000000000000000000000000000000000000008152508181620000b17f01ffc9a7a5cef8baa21ed3c5c0d7e23accb804b619e9333b597f47a0d84076e26200021c60201b60201c565b620001047f13b182f4c0e5b2efbac0efe6cf6d756c8b89f4b79c5707a043ed9ea740574ee97f7feaf19471f34a12a7eaf32d5f3090aa2260ea8624dc8a138e74e0bf0f623076186200021c60201b60201c565b81600190816200011591906200056d565b5080600290816200012791906200056d565b5050506200019f7f22c82707ba960a14c7592ffb6b8cfaa073fed0048a84cc7fa41f6b5bd8e7f2e47f3a6eb71757dfc6e784c1459d26270140c2c147d95ca985c80026fc5301c3eca17f8a7e378434598edc36d108689a030cbc9d7d465de4f74c71bae1028eed6a881b18186200021c60201b60201c565b620002147f8230223f691b981717299fae9549350a0d894555723531f02108b1f522c1a7977f6da5e1284143cdd2d15038a59bde3be031250f00291d64494c12d967b3a4e0c37fc53637662700e6c65104059db8bba34439e0c32483ab7c34e3ccae52c739549518186200021c60201b60201c565b5050620006d7565b63ffffffff60e01b817bffffffffffffffffffffffffffffffffffffffffffffffffffffffff19160362000287576040517f08c379a00000000000000000000000000000000000000000000000000000000081526004016200027e90620006b5565b60405180910390fd5b6001600080837bffffffffffffffffffffffffffffffffffffffffffffffffffffffff19167bffffffffffffffffffffffffffffffffffffffffffffffffffffffff1916815260200190815260200160002060006101000a81548160ff02191690831515021790555050565b600081519050919050565b7f4e487b7100000000000000000000000000000000000000000000000000000000600052604160045260246000fd5b7f4e487b7100000000000000000000000000000000000000000000000000000000600052602260045260246000fd5b600060028204905060018216806200037557607f821691505b6020821081036200038b576200038a6200032d565b5b50919050565b60008190508160005260206000209050919050565b60006020601f8301049050919050565b600082821b905092915050565b600060088302620003f57fffffffffffffffffffffffffffffffffffffffffffffffffffffffffffffffff82620003b6565b620004018683620003b6565b95508019841693508086168417925050509392505050565b6000819050919050565b6000819050919050565b60006200044e62000448620004428462000419565b62000423565b62000419565b9050919050565b6000819050919050565b6200046a836200042d565b62000482620004798262000455565b848454620003c3565b825550505050565b600090565b620004996200048a565b620004a68184846200045f565b505050565b5b81811015620004ce57620004c26000826200048f565b600181019050620004ac565b5050565b601f8211156200051d57620004e78162000391565b620004f284620003a6565b8101602085101562000502578190505b6200051a6200051185620003a6565b830182620004ab565b50505b505050565b600082821c905092915050565b6000620005426000198460080262000522565b1980831691505092915050565b60006200055d83836200052f565b9150826002028217905092915050565b6200057882620002f3565b67ffffffffffffffff811115620005945762000593620002fe565b5b620005a082546200035c565b620005ad828285620004d2565b600060209050601f831160018114620005e55760008415620005d0578287015190505b620005dc85826200054f565b8655506200064c565b601f198416620005f58662000391565b60005b828110156200061f57848901518255600182019150602085019450602081019050620005f8565b868310156200063f57848901516200063b601f8916826200052f565b8355505b6001600288020188555050505b505050505050565b600082825260208201905092915050565b7f4552433136353a20696e76616c696420696e7465726661636520696400000000600082015250565b60006200069d601c8362000654565b9150620006aa8262000665565b602082019050919050565b60006020820190508181036000830152620006d0816200068e565b9050919050565b61205580620006e76000396000f3fe608060405234801561001057600080fd5b50600436106100cf5760003560e01c80632f9f30b51161008c57806370a082311161006657806370a082311461023857806393ab6e561461026857806395d89b4114610298578063d85d3d27146102b6576100cf565b80632f9f30b5146101a85780634f6ccce7146101d85780636352211e14610208576100cf565b806301ffc9a7146100d457806306fdde0314610104578063095ea7b31461012257806318160ddd1461013e57806323b872dd1461015c5780632f745c5914610178575b600080fd5b6100ee60048036038101906100e9919061115a565b6102d2565b6040516100fb91906111a2565b60405180910390f35b61010c610339565b604051610119919061124d565b60405180910390f35b61013c60048036038101906101379190611303565b6103cb565b005b610146610566565b6040516101539190611352565b60405180910390f35b6101766004803603810190610171919061136d565b610573565b005b610192600480360381019061018d9190611303565b6105cc565b60405161019f9190611352565b60405180910390f35b6101c260048036038101906101bd91906114f5565b61067c565b6040516101cf91906111a2565b60405180910390f35b6101f260048036038101906101ed919061153e565b6106b2565b6040516101ff9190611352565b60405180910390f35b610222600480360381019061021d919061153e565b610723565b60405161022f919061157a565b60405180910390f35b610252600480360381019061024d9190611595565b6107d4565b60405161025f9190611352565b60405180910390f35b610282600480360381019061027d919061153e565b61088b565b60405161028f919061124d565b60405180910390f35b6102a0610937565b6040516102ad919061124d565b60405180910390f35b6102d060048036038101906102cb91906114f5565b6109c9565b005b6000806000837bffffffffffffffffffffffffffffffffffffffffffffffffffffffff19167bffffffffffffffffffffffffffffffffffffffffffffffffffffffff1916815260200190815260200160002060009054906101000a900460ff169050919050565b606060018054610348906115f1565b80601f0160208091040260200160405190810160405280929190818152602001828054610374906115f1565b80156103c15780601f10610396576101008083540402835291602001916103c1565b820191906000526020600020905b8154815290600101906020018083116103a457829003601f168201915b5050505050905090565b60006103d682610723565b90508073ffffffffffffffffffffffffffffffffffffffff168373ffffffffffffffffffffffffffffffffffffffff1603610446576040517f08c379a000000000000000000000000000000000000000000000000000000000815260040161043d90611694565b60405180910390fd5b8073ffffffffffffffffffffffffffffffffffffffff163373ffffffffffffffffffffffffffffffffffffffff16146104b4576040517f08c379a00000000000000000000000000000000000000000000000000000000081526004016104ab90611726565b60405180910390fd5b826005600084815260200190815260200160002060006101000a81548173ffffffffffffffffffffffffffffffffffffffff021916908373ffffffffffffffffffffffffffffffffffffffff160217905550818373ffffffffffffffffffffffffffffffffffffffff163373ffffffffffffffffffffffffffffffffffffffff167f8c5be1e5ebec7d5bd14f71427d1e84f3dd0314c0f7b2291e5b200ac8c7c3b92560405160405180910390a4505050565b6000600680549050905090565b61057d3382610ab9565b6105bc576040517f08c379a00000000000000000000000000000000000000000000000000000000081526004016105b3906117b8565b60405180910390fd5b6105c7838383610b48565b505050565b60006105d7836107d4565b8210610618576040517f08c379a000000000000000000000000000000000000000000000000000000000815260040161060f9061184a565b60405180910390fd5b600860008473ffffffffffffffffffffffffffffffffffffffff1673ffffffffffffffffffffffffffffffffffffffff16815260200190815260200160002082815481106106695761066861186a565b5b9060005260206000200154905092915050565b600b818051602081018201805184825260208301602085012081835280955050505050506000915054906101000a900460ff1681565b60006106bc610566565b82106106fd576040517f08c379a00000000000000000000000000000000000000000000000000000000081526004016106f49061184a565b60405180910390fd5b600682815481106107115761071061186a565b5b90600052602060002001549050919050565b6000806003600084815260200190815260200160002060009054906101000a900473ffffffffffffffffffffffffffffffffffffffff169050600073ffffffffffffffffffffffffffffffffffffffff168173ffffffffffffffffffffffffffffffffffffffff16036107cb576040517f08c379a00000000000000000000000000000000000000000000000000000000081526004016107c29061190b565b60405180910390fd5b80915050919050565b60008073ffffffffffffffffffffffffffffffffffffffff168273ffffffffffffffffffffffffffffffffffffffff1603610844576040517f08c379a000000000000000000000000000000000000000000000000000000000815260040161083b9061199d565b60405180910390fd5b600460008373ffffffffffffffffffffffffffffffffffffffff1673ffffffffffffffffffffffffffffffffffffffff168152602001908152602001600020549050919050565b600a818154811061089b57600080fd5b9060005260206000200160009150905080546108b6906115f1565b80601f01602080910402602001604051908101604052809291908181526020018280546108e2906115f1565b801561092f5780601f106109045761010080835404028352916020019161092f565b820191906000526020600020905b81548152906001019060200180831161091257829003601f168201915b505050505081565b606060028054610946906115f1565b80601f0160208091040260200160405190810160405280929190818152602001828054610972906115f1565b80156109bf5780601f10610994576101008083540402835291602001916109bf565b820191906000526020600020905b8154815290600101906020018083116109a257829003601f168201915b5050505050905090565b600b816040516109d991906119f9565b908152602001604051809103902060009054906101000a900460ff1615610a35576040517f08c379a0000000000000000000000000000000000000000000000000000000008152600401610a2c90611a5c565b60405180910390fd5b6000600a805490509050600a82908060018154018082558091505060019003906000526020600020016000909190919091509081610a739190611c28565b50610a7e3382610d8d565b6001600b83604051610a9091906119f9565b908152602001604051809103902060006101000a81548160ff0219169083151502179055505050565b6000610ac482610dae565b610b03576040517f08c379a0000000000000000000000000000000000000000000000000000000008152600401610afa90611d6c565b60405180910390fd5b6000610b0e83610723565b90508073ffffffffffffffffffffffffffffffffffffffff168473ffffffffffffffffffffffffffffffffffffffff161491505092915050565b8273ffffffffffffffffffffffffffffffffffffffff16610b6882610723565b73ffffffffffffffffffffffffffffffffffffffff1614610bbe576040517f08c379a0000000000000000000000000000000000000000000000000000000008152600401610bb590611dfe565b60405180910390fd5b600073ffffffffffffffffffffffffffffffffffffffff168273ffffffffffffffffffffffffffffffffffffffff1603610c2d576040517f08c379a0000000000000000000000000000000000000000000000000000000008152600401610c2490611e90565b60405180910390fd5b6001600460008573ffffffffffffffffffffffffffffffffffffffff1673ffffffffffffffffffffffffffffffffffffffff1681526020019081526020016000206000828254610c7d9190611edf565b925050819055506001600460008473ffffffffffffffffffffffffffffffffffffffff1673ffffffffffffffffffffffffffffffffffffffff1681526020019081526020016000206000828254610cd49190611f13565b92505081905550816003600083815260200190815260200160002060006101000a81548173ffffffffffffffffffffffffffffffffffffffff021916908373ffffffffffffffffffffffffffffffffffffffff160217905550808273ffffffffffffffffffffffffffffffffffffffff168473ffffffffffffffffffffffffffffffffffffffff167fddf252ad1be2c89b69c2b068fc378daa952ba7f163c4a11628f55a4df523b3ef60405160405180910390a4505050565b610d978282610e20565b610da081610fe1565b610daa828261102a565b5050565b6000806003600084815260200190815260200160002060009054906101000a900473ffffffffffffffffffffffffffffffffffffffff169050600073ffffffffffffffffffffffffffffffffffffffff168173ffffffffffffffffffffffffffffffffffffffff161415915050919050565b600073ffffffffffffffffffffffffffffffffffffffff168273ffffffffffffffffffffffffffffffffffffffff1603610e8f576040517f08c379a0000000000000000000000000000000000000000000000000000000008152600401610e8690611f93565b60405180910390fd5b610e9881610dae565b15610ed8576040517f08c379a0000000000000000000000000000000000000000000000000000000008152600401610ecf90611fff565b60405180910390fd5b816003600083815260200190815260200160002060006101000a81548173ffffffffffffffffffffffffffffffffffffffff021916908373ffffffffffffffffffffffffffffffffffffffff1602179055506001600460008473ffffffffffffffffffffffffffffffffffffffff1673ffffffffffffffffffffffffffffffffffffffff1681526020019081526020016000206000828254610f7a9190611f13565b92505081905550808273ffffffffffffffffffffffffffffffffffffffff16600073ffffffffffffffffffffffffffffffffffffffff167fddf252ad1be2c89b69c2b068fc378daa952ba7f163c4a11628f55a4df523b3ef60405160405180910390a45050565b6006805490506007600083815260200190815260200160002081905550600681908060018154018082558091505060019003906000526020600020016000909190919091505550565b600860008373ffffffffffffffffffffffffffffffffffffffff1673ffffffffffffffffffffffffffffffffffffffff168152602001908152602001600020805490506009600083815260200190815260200160002081905550600860008373ffffffffffffffffffffffffffffffffffffffff1673ffffffffffffffffffffffffffffffffffffffff1681526020019081526020016000208190806001815401808255809150506001900390600052602060002001600090919091909150555050565b6000604051905090565b600080fd5b600080fd5b60007fffffffff0000000000000000000000000000000000000000000000000000000082169050919050565b61113781611102565b811461114257600080fd5b50565b6000813590506111548161112e565b92915050565b6000602082840312156111705761116f6110f8565b5b600061117e84828501611145565b91505092915050565b60008115159050919050565b61119c81611187565b82525050565b60006020820190506111b76000830184611193565b92915050565b600081519050919050565b600082825260208201905092915050565b60005b838110156111f75780820151818401526020810190506111dc565b60008484015250505050565b6000601f19601f8301169050919050565b600061121f826111bd565b61122981856111c8565b93506112398185602086016111d9565b61124281611203565b840191505092915050565b600060208201905081810360008301526112678184611214565b905092915050565b600073ffffffffffffffffffffffffffffffffffffffff82169050919050565b600061129a8261126f565b9050919050565b6112aa8161128f565b81146112b557600080fd5b50565b6000813590506112c7816112a1565b92915050565b6000819050919050565b6112e0816112cd565b81146112eb57600080fd5b50565b6000813590506112fd816112d7565b92915050565b6000806040838503121561131a576113196110f8565b5b6000611328858286016112b8565b9250506020611339858286016112ee565b9150509250929050565b61134c816112cd565b82525050565b60006020820190506113676000830184611343565b92915050565b600080600060608486031215611386576113856110f8565b5b6000611394868287016112b8565b93505060206113a5868287016112b8565b92505060406113b6868287016112ee565b9150509250925092565b600080fd5b600080fd5b7f4e487b7100000000000000000000000000000000000000000000000000000000600052604160045260246000fd5b61140282611203565b810181811067ffffffffffffffff82111715611421576114206113ca565b5b80604052505050565b60006114346110ee565b905061144082826113f9565b919050565b600067ffffffffffffffff8211156114605761145f6113ca565b5b61146982611203565b9050602081019050919050565b82818337600083830152505050565b600061149861149384611445565b61142a565b9050828152602081018484840111156114b4576114b36113c5565b5b6114bf848285611476565b509392505050565b600082601f8301126114dc576114db6113c0565b5b81356114ec848260208601611485565b91505092915050565b60006020828403121561150b5761150a6110f8565b5b600082013567ffffffffffffffff811115611529576115286110fd565b5b611535848285016114c7565b91505092915050565b600060208284031215611554576115536110f8565b5b6000611562848285016112ee565b91505092915050565b6115748161128f565b82525050565b600060208201905061158f600083018461156b565b92915050565b6000602082840312156115ab576115aa6110f8565b5b60006115b9848285016112b8565b91505092915050565b7f4e487b7100000000000000000000000000000000000000000000000000000000600052602260045260246000fd5b6000600282049050600182168061160957607f821691505b60208210810361161c5761161b6115c2565b5b50919050565b7f4552433732313a204572726f722d2063616e6e6f7420617070726f766520746f60008201527f206f776e65720000000000000000000000000000000000000000000000000000602082015250565b600061167e6026836111c8565b915061168982611622565b604082019050919050565b600060208201905081810360008301526116ad81611671565b9050919050565b7f4552433732313a20617070726f76652063616c6c6572206973206e6f74206f7760008201527f6e6572206e6f7220617070726f76656420666f7220616c6c0000000000000000602082015250565b60006117106038836111c8565b915061171b826116b4565b604082019050919050565b6000602082019050818103600083015261173f81611703565b9050919050565b7f4552433732313a207472616e736665722063616c6c6572206973206e6f74206f60008201527f776e6572206e6f7220617070726f766564000000000000000000000000000000602082015250565b60006117a26031836111c8565b91506117ad82611746565b604082019050919050565b600060208201905081810360008301526117d181611795565b9050919050565b7f455243373231456e756d657261626c653a20696e646578206f7574206f66206260008201527f6f756e6473000000000000000000000000000000000000000000000000000000602082015250565b60006118346025836111c8565b915061183f826117d8565b604082019050919050565b6000602082019050818103600083015261186381611827565b9050919050565b7f4e487b7100000000000000000000000000000000000000000000000000000000600052603260045260246000fd5b7f4552433732313a206f776e657220717565727920666f72206e6f6e657869737460008201527f656e7420746f6b656e0000000000000000000000000000000000000000000000602082015250565b60006118f56029836111c8565b915061190082611899565b604082019050919050565b60006020820190508181036000830152611924816118e8565b9050919050565b7f4552433732313a2062616c616e636520717565727920666f7220746865207a6560008201527f726f206164647265737300000000000000000000000000000000000000000000602082015250565b6000611987602a836111c8565b91506119928261192b565b604082019050919050565b600060208201905081810360008301526119b68161197a565b9050919050565b600081905092915050565b60006119d3826111bd565b6119dd81856119bd565b93506119ed8185602086016111d9565b80840191505092915050565b6000611a0582846119c8565b915081905092915050565b7f4b727970746f4269726420616c72656164792065786973747300000000000000600082015250565b6000611a466019836111c8565b9150611a5182611a10565b602082019050919050565b60006020820190508181036000830152611a7581611a39565b9050919050565b60008190508160005260206000209050919050565b60006020601f8301049050919050565b600082821b905092915050565b600060088302611ade7fffffffffffffffffffffffffffffffffffffffffffffffffffffffffffffffff82611aa1565b611ae88683611aa1565b95508019841693508086168417925050509392505050565b6000819050919050565b6000611b25611b20611b1b846112cd565b611b00565b6112cd565b9050919050565b6000819050919050565b611b3f83611b0a565b611b53611b4b82611b2c565b848454611aae565b825550505050565b600090565b611b68611b5b565b611b73818484611b36565b505050565b5b81811015611b9757611b8c600082611b60565b600181019050611b79565b5050565b601f821115611bdc57611bad81611a7c565b611bb684611a91565b81016020851015611bc5578190505b611bd9611bd185611a91565b830182611b78565b50505b505050565b600082821c905092915050565b6000611bff60001984600802611be1565b1980831691505092915050565b6000611c188383611bee565b9150826002028217905092915050565b611c31826111bd565b67ffffffffffffffff811115611c4a57611c496113ca565b5b611c5482546115f1565b611c5f828285611b9b565b600060209050601f831160018114611c925760008415611c80578287015190505b611c8a8582611c0c565b865550611cf2565b601f198416611ca086611a7c565b60005b82811015611cc857848901518255600182019150602085019450602081019050611ca3565b86831015611ce55784890151611ce1601f891682611bee565b8355505b6001600288020188555050505b505050505050565b7f4552433732313a206f70657261746f7220717565727920666f72206e6f6e657860008201527f697374656e7420746f6b656e0000000000000000000000000000000000000000602082015250565b6000611d56602c836111c8565b9150611d6182611cfa565b604082019050919050565b60006020820190508181036000830152611d8581611d49565b9050919050565b7f4552433732313a207472616e73666572206f6620746f6b656e2074686174206960008201527f73206e6f74206f776e6564000000000000000000000000000000000000000000602082015250565b6000611de8602b836111c8565b9150611df382611d8c565b604082019050919050565b60006020820190508181036000830152611e1781611ddb565b9050919050565b7f4552433732313a207472616e7366657220746f20746865207a65726f2061646460008201527f7265737300000000000000000000000000000000000000000000000000000000602082015250565b6000611e7a6024836111c8565b9150611e8582611e1e565b604082019050919050565b60006020820190508181036000830152611ea981611e6d565b9050919050565b7f4e487b7100000000000000000000000000000000000000000000000000000000600052601160045260246000fd5b6000611eea826112cd565b9150611ef5836112cd565b9250828203905081811115611f0d57611f0c611eb0565b5b92915050565b6000611f1e826112cd565b9150611f29836112cd565b9250828201905080821115611f4157611f40611eb0565b5b92915050565b7f4552433732313a206d696e7420746f20746865207a65726f2061646472657373600082015250565b6000611f7d6020836111c8565b9150611f8882611f47565b602082019050919050565b60006020820190508181036000830152611fac81611f70565b9050919050565b7f4552433732313a20746f6b656e20616c7265616479206d696e74656400000000600082015250565b6000611fe9601c836111c8565b9150611ff482611fb3565b602082019050919050565b6000602082019050818103600083015261201881611fdc565b905091905056fea2646970667358221220b13681244ca74a4342eed652df27c7f307997c1b74e9eaf25350c43368d753ad64736f6c63430008130033",
  "immutableReferences": {},
  "source": "// SPDX-License-Identifier: MIT\r\npragma solidity 0.8.19;\r\n\r\nimport \"./ERC721Connector.sol\";\r\n\r\ncontract KryptoBirdz is ERC721Connector {\r\n\r\n    // array to store our nfts\r\n    string[] public kryptoBirdz;\r\n\r\n    mapping(string => bool) public _kryptoBirdzExists;\r\n\r\n    function mint(string memory _kryptoBird) public {\r\n        require(!_kryptoBirdzExists[_kryptoBird], \"KryptoBird already exists\");\r\n        // uint _id = kryptoBirdz.push(_kryptoBird);  <--- this is deprecated, .push no longer returns the length of the array\r\n        //                                                 but the reference to the new element\r\n\r\n        // we get the current id, which is the length of the array\r\n        uint _id = kryptoBirdz.length;\r\n        // we add the nft to the array\r\n        kryptoBirdz.push(_kryptoBird);\r\n        // we mint the nft to the sender of the function call\r\n        _mint(msg.sender, _id);\r\n\r\n        _kryptoBirdzExists[_kryptoBird] = true;\r\n    }\r\n    constructor() ERC721Connector(\"KryptoBirdz\", \"KRBZ\") {}\r\n}",
  "sourcePath": "C:\\Users\\damik\\Documents\\nft-marketplace-starter-kit\\src\\contracts\\KryptoBirdz.sol",
  "compiler": {
    "name": "solc",
    "version": "0.8.19+commit.7dd6d404.Emscripten.clang"
  },
  "schemaVersion": "3.4.13",
  "updatedAt": "2023-09-07T18:37:44.071Z",
  "networkType": "ethereum",
  "devdoc": {
    "events": {
      "Approval(address,address,uint256)": {
        "details": "This emits when the approved address for an NFT is changed or  reaffirmed. The zero address indicates there is no approved address.  When a Transfer event emits, this also indicates that the approved  address for that NFT (if any) is reset to none."
      },
      "Transfer(address,address,uint256)": {
        "details": "This emits when ownership of any NFT changes by any mechanism.  This event emits when NFTs are created (`from` == 0) and destroyed  (`to` == 0). Exception: during contract creation, any number of NFTs  may be created and assigned without emitting Transfer. At the time of  any transfer, the approved address for that NFT (if any) is reset to none."
      }
    },
    "kind": "dev",
    "methods": {
      "balanceOf(address)": {
        "details": "NFTs assigned to the zero address are considered invalid, and this  function throws for queries about the zero address.",
        "params": {
          "_owner": "An address for whom to query the balance"
        },
        "returns": {
          "_0": "The number of NFTs owned by `_owner`, possibly zero"
        }
      },
      "ownerOf(uint256)": {
        "details": "NFTs assigned to zero address are considered invalid, and queries  about them do throw.",
        "params": {
          "_tokenId": "The identifier for an NFT"
        },
        "returns": {
          "_0": "The address of the owner of the NFT"
        }
      },
      "supportsInterface(bytes4)": {
        "details": "Interface identification is specified in ERC-165. This function  uses less than 30,000 gas.",
        "params": {
          "interfaceID": "The interface identifier, as specified in ERC-165"
        },
        "returns": {
          "_0": "`true` if the contract implements `interfaceID` and  `interfaceID` is not 0xffffffff, `false` otherwise"
        }
      },
      "transferFrom(address,address,uint256)": {
        "details": "Throws unless `msg.sender` is the current owner, an authorized  operator, or the approved address for this NFT. Throws if `_from` is  not the current owner. Throws if `_to` is the zero address. Throws if  `_tokenId` is not a valid NFT.",
        "params": {
          "_from": "The current owner of the NFT",
          "_to": "The new owner",
          "_tokenId": "The NFT to transfer"
        }
      }
    },
    "version": 1
  },
  "userdoc": {
    "kind": "user",
    "methods": {
      "balanceOf(address)": {
        "notice": "Count all NFTs assigned to an owner"
      },
      "name()": {
        "notice": "A descriptive name for a collection of NFTs in this contract"
      },
      "ownerOf(uint256)": {
        "notice": "Find the owner of an NFT"
      },
      "supportsInterface(bytes4)": {
        "notice": "Query if a contract implements an interface"
      },
      "symbol()": {
        "notice": "An abbreviated name for NFTs in this contract"
      },
      "totalSupply()": {
        "notice": "return the total supply of the _allTokens array"
      },
      "transferFrom(address,address,uint256)": {
        "notice": "Transfer ownership of an NFT -- THE CALLER IS RESPONSIBLE  TO CONFIRM THAT `_to` IS CAPABLE OF RECEIVING NFTS OR ELSE  THEY MAY BE PERMANENTLY LOST"
      }
    },
    "version": 1
  }
}