{
  "contractName": "kryptoBird",
  "abi": [
    {
      "inputs": [],
      "stateMutability": "nonpayable",
      "type": "constructor"
    },
    {
      "anonymous": false,
      "inputs": [
        {
          "indexed": true,
          "internalType": "address",
          "name": "from",
          "type": "address"
        },
        {
          "indexed": true,
          "internalType": "address",
          "name": "to",
          "type": "address"
        },
        {
          "indexed": true,
          "internalType": "uint256",
          "name": "tokenId",
          "type": "uint256"
        }
      ],
      "name": "Transfer",
      "type": "event"
    },
    {
      "inputs": [
        {
          "internalType": "string",
          "name": "",
          "type": "string"
        }
      ],
      "name": "_kryptoBirdzExists",
      "outputs": [
        {
          "internalType": "bool",
          "name": "",
          "type": "bool"
        }
      ],
      "stateMutability": "view",
      "type": "function",
      "constant": true
    },
    {
      "inputs": [
        {
          "internalType": "address",
          "name": "_owner",
          "type": "address"
        }
      ],
      "name": "balanceOf",
      "outputs": [
        {
          "internalType": "uint256",
          "name": "",
          "type": "uint256"
        }
      ],
      "stateMutability": "view",
      "type": "function",
      "constant": true
    },
    {
      "inputs": [
        {
          "internalType": "uint256",
          "name": "",
          "type": "uint256"
        }
      ],
      "name": "kryptoBirdz",
      "outputs": [
        {
          "internalType": "string",
          "name": "",
          "type": "string"
        }
      ],
      "stateMutability": "view",
      "type": "function",
      "constant": true
    },
    {
      "inputs": [],
      "name": "name",
      "outputs": [
        {
          "internalType": "string",
          "name": "",
          "type": "string"
        }
      ],
      "stateMutability": "view",
      "type": "function",
      "constant": true
    },
    {
      "inputs": [
        {
          "internalType": "uint256",
          "name": "_tokenId",
          "type": "uint256"
        }
      ],
      "name": "ownerOf",
      "outputs": [
        {
          "internalType": "address",
          "name": "",
          "type": "address"
        }
      ],
      "stateMutability": "view",
      "type": "function",
      "constant": true
    },
    {
      "inputs": [],
      "name": "symbol",
      "outputs": [
        {
          "internalType": "string",
          "name": "",
          "type": "string"
        }
      ],
      "stateMutability": "view",
      "type": "function",
      "constant": true
    },
    {
      "inputs": [
        {
          "internalType": "uint256",
          "name": "index",
          "type": "uint256"
        }
      ],
      "name": "tokenByIndex",
      "outputs": [
        {
          "internalType": "uint256",
          "name": "",
          "type": "uint256"
        }
      ],
      "stateMutability": "view",
      "type": "function",
      "constant": true
    },
    {
      "inputs": [
        {
          "internalType": "address",
          "name": "owner",
          "type": "address"
        },
        {
          "internalType": "uint256",
          "name": "index",
          "type": "uint256"
        }
      ],
      "name": "tokenOfOwnerByIndex",
      "outputs": [
        {
          "internalType": "uint256",
          "name": "",
          "type": "uint256"
        }
      ],
      "stateMutability": "view",
      "type": "function",
      "constant": true
    },
    {
      "inputs": [],
      "name": "totalSupply",
      "outputs": [
        {
          "internalType": "uint256",
          "name": "",
          "type": "uint256"
        }
      ],
      "stateMutability": "view",
      "type": "function",
      "constant": true
    },
    {
      "inputs": [
        {
          "internalType": "address",
          "name": "_from",
          "type": "address"
        },
        {
          "internalType": "address",
          "name": "_to",
          "type": "address"
        },
        {
          "internalType": "uint256",
          "name": "_tokenId",
          "type": "uint256"
        }
      ],
      "name": "transferFrom",
      "outputs": [],
      "stateMutability": "nonpayable",
      "type": "function"
    },
    {
      "inputs": [
        {
          "internalType": "string",
          "name": "_kryptoBird",
          "type": "string"
        }
      ],
      "name": "mint",
      "outputs": [],
      "stateMutability": "nonpayable",
      "type": "function"
    }
  ],
  "bytecode": "0x60806040523480156200001157600080fd5b506040518060400160405280600b81526020017f4b727970746f426972647a0000000000000000000000000000000000000000008152506040518060400160405280600481526020017f4b52425a000000000000000000000000000000000000000000000000000000008152508181816000908162000091919062000328565b508060019081620000a3919062000328565b50505050506200040f565b600081519050919050565b7f4e487b7100000000000000000000000000000000000000000000000000000000600052604160045260246000fd5b7f4e487b7100000000000000000000000000000000000000000000000000000000600052602260045260246000fd5b600060028204905060018216806200013057607f821691505b602082108103620001465762000145620000e8565b5b50919050565b60008190508160005260206000209050919050565b60006020601f8301049050919050565b600082821b905092915050565b600060088302620001b07fffffffffffffffffffffffffffffffffffffffffffffffffffffffffffffffff8262000171565b620001bc868362000171565b95508019841693508086168417925050509392505050565b6000819050919050565b6000819050919050565b60006200020962000203620001fd84620001d4565b620001de565b620001d4565b9050919050565b6000819050919050565b6200022583620001e8565b6200023d620002348262000210565b8484546200017e565b825550505050565b600090565b6200025462000245565b620002618184846200021a565b505050565b5b8181101562000289576200027d6000826200024a565b60018101905062000267565b5050565b601f821115620002d857620002a2816200014c565b620002ad8462000161565b81016020851015620002bd578190505b620002d5620002cc8562000161565b83018262000266565b50505b505050565b600082821c905092915050565b6000620002fd60001984600802620002dd565b1980831691505092915050565b6000620003188383620002ea565b9150826002028217905092915050565b6200033382620000ae565b67ffffffffffffffff8111156200034f576200034e620000b9565b5b6200035b825462000117565b620003688282856200028d565b600060209050601f831160018114620003a057600084156200038b578287015190505b6200039785826200030a565b86555062000407565b601f198416620003b0866200014c565b60005b82811015620003da57848901518255600182019150602085019450602081019050620003b3565b86831015620003fa5784890151620003f6601f891682620002ea565b8355505b6001600288020188555050505b505050505050565b611a3c806200041f6000396000f3fe608060405234801561001057600080fd5b50600436106100a95760003560e01c80634f6ccce7116100715780634f6ccce7146101665780636352211e1461019657806370a08231146101c657806393ab6e56146101f657806395d89b4114610226578063d85d3d2714610244576100a9565b806306fdde03146100ae57806318160ddd146100cc57806323b872dd146100ea5780632f745c59146101065780632f9f30b514610136575b600080fd5b6100b6610260565b6040516100c39190610e32565b60405180910390f35b6100d46102f2565b6040516100e19190610e6d565b60405180910390f35b61010460048036038101906100ff9190610f26565b6102ff565b005b610120600480360381019061011b9190610f79565b61030f565b60405161012d9190610e6d565b60405180910390f35b610150600480360381019061014b91906110ee565b6103bf565b60405161015d9190611152565b60405180910390f35b610180600480360381019061017b919061116d565b6103f5565b60405161018d9190610e6d565b60405180910390f35b6101b060048036038101906101ab919061116d565b610466565b6040516101bd91906111a9565b60405180910390f35b6101e060048036038101906101db91906111c4565b610517565b6040516101ed9190610e6d565b60405180910390f35b610210600480360381019061020b919061116d565b6105ce565b60405161021d9190610e32565b60405180910390f35b61022e61067a565b60405161023b9190610e32565b60405180910390f35b61025e600480360381019061025991906110ee565b61070c565b005b60606000805461026f90611220565b80601f016020809104026020016040519081016040528092919081815260200182805461029b90611220565b80156102e85780601f106102bd576101008083540402835291602001916102e8565b820191906000526020600020905b8154815290600101906020018083116102cb57829003601f168201915b5050505050905090565b6000600580549050905090565b61030a8383836107fc565b505050565b600061031a83610517565b821061035b576040517f08c379a0000000000000000000000000000000000000000000000000000000008152600401610352906112c3565b60405180910390fd5b600760008473ffffffffffffffffffffffffffffffffffffffff1673ffffffffffffffffffffffffffffffffffffffff16815260200190815260200160002082815481106103ac576103ab6112e3565b5b9060005260206000200154905092915050565b600a818051602081018201805184825260208301602085012081835280955050505050506000915054906101000a900460ff1681565b60006103ff6102f2565b8210610440576040517f08c379a0000000000000000000000000000000000000000000000000000000008152600401610437906112c3565b60405180910390fd5b60058281548110610454576104536112e3565b5b90600052602060002001549050919050565b6000806002600084815260200190815260200160002060009054906101000a900473ffffffffffffffffffffffffffffffffffffffff169050600073ffffffffffffffffffffffffffffffffffffffff168173ffffffffffffffffffffffffffffffffffffffff160361050e576040517f08c379a000000000000000000000000000000000000000000000000000000000815260040161050590611384565b60405180910390fd5b80915050919050565b60008073ffffffffffffffffffffffffffffffffffffffff168273ffffffffffffffffffffffffffffffffffffffff1603610587576040517f08c379a000000000000000000000000000000000000000000000000000000000815260040161057e90611416565b60405180910390fd5b600360008373ffffffffffffffffffffffffffffffffffffffff1673ffffffffffffffffffffffffffffffffffffffff168152602001908152602001600020549050919050565b600981815481106105de57600080fd5b9060005260206000200160009150905080546105f990611220565b80601f016020809104026020016040519081016040528092919081815260200182805461062590611220565b80156106725780601f1061064757610100808354040283529160200191610672565b820191906000526020600020905b81548152906001019060200180831161065557829003601f168201915b505050505081565b60606001805461068990611220565b80601f01602080910402602001604051908101604052809291908181526020018280546106b590611220565b80156107025780601f106106d757610100808354040283529160200191610702565b820191906000526020600020905b8154815290600101906020018083116106e557829003601f168201915b5050505050905090565b600a8160405161071c9190611472565b908152602001604051809103902060009054906101000a900460ff1615610778576040517f08c379a000000000000000000000000000000000000000000000000000000000815260040161076f906114d5565b60405180910390fd5b600060098054905090506009829080600181540180825580915050600190039060005260206000200160009091909190915090816107b691906116a1565b506107c13382610a41565b6001600a836040516107d39190611472565b908152602001604051809103902060006101000a81548160ff0219169083151502179055505050565b8273ffffffffffffffffffffffffffffffffffffffff1661081c82610466565b73ffffffffffffffffffffffffffffffffffffffff1614610872576040517f08c379a0000000000000000000000000000000000000000000000000000000008152600401610869906117e5565b60405180910390fd5b600073ffffffffffffffffffffffffffffffffffffffff168273ffffffffffffffffffffffffffffffffffffffff16036108e1576040517f08c379a00000000000000000000000000000000000000000000000000000000081526004016108d890611877565b60405180910390fd5b6001600360008573ffffffffffffffffffffffffffffffffffffffff1673ffffffffffffffffffffffffffffffffffffffff168152602001908152602001600020600082825461093191906118c6565b925050819055506001600360008473ffffffffffffffffffffffffffffffffffffffff1673ffffffffffffffffffffffffffffffffffffffff168152602001908152602001600020600082825461098891906118fa565b92505081905550816002600083815260200190815260200160002060006101000a81548173ffffffffffffffffffffffffffffffffffffffff021916908373ffffffffffffffffffffffffffffffffffffffff160217905550808273ffffffffffffffffffffffffffffffffffffffff168473ffffffffffffffffffffffffffffffffffffffff167fddf252ad1be2c89b69c2b068fc378daa952ba7f163c4a11628f55a4df523b3ef60405160405180910390a4505050565b610a4b8282610a62565b610a5481610c23565b610a5e8282610c6c565b5050565b600073ffffffffffffffffffffffffffffffffffffffff168273ffffffffffffffffffffffffffffffffffffffff1603610ad1576040517f08c379a0000000000000000000000000000000000000000000000000000000008152600401610ac89061197a565b60405180910390fd5b610ada81610d30565b15610b1a576040517f08c379a0000000000000000000000000000000000000000000000000000000008152600401610b11906119e6565b60405180910390fd5b816002600083815260200190815260200160002060006101000a81548173ffffffffffffffffffffffffffffffffffffffff021916908373ffffffffffffffffffffffffffffffffffffffff1602179055506001600360008473ffffffffffffffffffffffffffffffffffffffff1673ffffffffffffffffffffffffffffffffffffffff1681526020019081526020016000206000828254610bbc91906118fa565b92505081905550808273ffffffffffffffffffffffffffffffffffffffff16600073ffffffffffffffffffffffffffffffffffffffff167fddf252ad1be2c89b69c2b068fc378daa952ba7f163c4a11628f55a4df523b3ef60405160405180910390a45050565b6005805490506006600083815260200190815260200160002081905550600581908060018154018082558091505060019003906000526020600020016000909190919091505550565b600760008373ffffffffffffffffffffffffffffffffffffffff1673ffffffffffffffffffffffffffffffffffffffff168152602001908152602001600020805490506008600083815260200190815260200160002081905550600760008373ffffffffffffffffffffffffffffffffffffffff1673ffffffffffffffffffffffffffffffffffffffff1681526020019081526020016000208190806001815401808255809150506001900390600052602060002001600090919091909150555050565b6000806002600084815260200190815260200160002060009054906101000a900473ffffffffffffffffffffffffffffffffffffffff169050600073ffffffffffffffffffffffffffffffffffffffff168173ffffffffffffffffffffffffffffffffffffffff161415915050919050565b600081519050919050565b600082825260208201905092915050565b60005b83811015610ddc578082015181840152602081019050610dc1565b60008484015250505050565b6000601f19601f8301169050919050565b6000610e0482610da2565b610e0e8185610dad565b9350610e1e818560208601610dbe565b610e2781610de8565b840191505092915050565b60006020820190508181036000830152610e4c8184610df9565b905092915050565b6000819050919050565b610e6781610e54565b82525050565b6000602082019050610e826000830184610e5e565b92915050565b6000604051905090565b600080fd5b600080fd5b600073ffffffffffffffffffffffffffffffffffffffff82169050919050565b6000610ec782610e9c565b9050919050565b610ed781610ebc565b8114610ee257600080fd5b50565b600081359050610ef481610ece565b92915050565b610f0381610e54565b8114610f0e57600080fd5b50565b600081359050610f2081610efa565b92915050565b600080600060608486031215610f3f57610f3e610e92565b5b6000610f4d86828701610ee5565b9350506020610f5e86828701610ee5565b9250506040610f6f86828701610f11565b9150509250925092565b60008060408385031215610f9057610f8f610e92565b5b6000610f9e85828601610ee5565b9250506020610faf85828601610f11565b9150509250929050565b600080fd5b600080fd5b7f4e487b7100000000000000000000000000000000000000000000000000000000600052604160045260246000fd5b610ffb82610de8565b810181811067ffffffffffffffff8211171561101a57611019610fc3565b5b80604052505050565b600061102d610e88565b90506110398282610ff2565b919050565b600067ffffffffffffffff82111561105957611058610fc3565b5b61106282610de8565b9050602081019050919050565b82818337600083830152505050565b600061109161108c8461103e565b611023565b9050828152602081018484840111156110ad576110ac610fbe565b5b6110b884828561106f565b509392505050565b600082601f8301126110d5576110d4610fb9565b5b81356110e584826020860161107e565b91505092915050565b60006020828403121561110457611103610e92565b5b600082013567ffffffffffffffff81111561112257611121610e97565b5b61112e848285016110c0565b91505092915050565b60008115159050919050565b61114c81611137565b82525050565b60006020820190506111676000830184611143565b92915050565b60006020828403121561118357611182610e92565b5b600061119184828501610f11565b91505092915050565b6111a381610ebc565b82525050565b60006020820190506111be600083018461119a565b92915050565b6000602082840312156111da576111d9610e92565b5b60006111e884828501610ee5565b91505092915050565b7f4e487b7100000000000000000000000000000000000000000000000000000000600052602260045260246000fd5b6000600282049050600182168061123857607f821691505b60208210810361124b5761124a6111f1565b5b50919050565b7f455243373231456e756d657261626c653a20696e646578206f7574206f66206260008201527f6f756e6473000000000000000000000000000000000000000000000000000000602082015250565b60006112ad602583610dad565b91506112b882611251565b604082019050919050565b600060208201905081810360008301526112dc816112a0565b9050919050565b7f4e487b7100000000000000000000000000000000000000000000000000000000600052603260045260246000fd5b7f4552433732313a206f776e657220717565727920666f72206e6f6e657869737460008201527f656e7420746f6b656e0000000000000000000000000000000000000000000000602082015250565b600061136e602983610dad565b915061137982611312565b604082019050919050565b6000602082019050818103600083015261139d81611361565b9050919050565b7f4552433732313a2062616c616e636520717565727920666f7220746865207a6560008201527f726f206164647265737300000000000000000000000000000000000000000000602082015250565b6000611400602a83610dad565b915061140b826113a4565b604082019050919050565b6000602082019050818103600083015261142f816113f3565b9050919050565b600081905092915050565b600061144c82610da2565b6114568185611436565b9350611466818560208601610dbe565b80840191505092915050565b600061147e8284611441565b915081905092915050565b7f4b727970746f4269726420616c72656164792065786973747300000000000000600082015250565b60006114bf601983610dad565b91506114ca82611489565b602082019050919050565b600060208201905081810360008301526114ee816114b2565b9050919050565b60008190508160005260206000209050919050565b60006020601f8301049050919050565b600082821b905092915050565b6000600883026115577fffffffffffffffffffffffffffffffffffffffffffffffffffffffffffffffff8261151a565b611561868361151a565b95508019841693508086168417925050509392505050565b6000819050919050565b600061159e61159961159484610e54565b611579565b610e54565b9050919050565b6000819050919050565b6115b883611583565b6115cc6115c4826115a5565b848454611527565b825550505050565b600090565b6115e16115d4565b6115ec8184846115af565b505050565b5b81811015611610576116056000826115d9565b6001810190506115f2565b5050565b601f82111561165557611626816114f5565b61162f8461150a565b8101602085101561163e578190505b61165261164a8561150a565b8301826115f1565b50505b505050565b600082821c905092915050565b60006116786000198460080261165a565b1980831691505092915050565b60006116918383611667565b9150826002028217905092915050565b6116aa82610da2565b67ffffffffffffffff8111156116c3576116c2610fc3565b5b6116cd8254611220565b6116d8828285611614565b600060209050601f83116001811461170b57600084156116f9578287015190505b6117038582611685565b86555061176b565b601f198416611719866114f5565b60005b828110156117415784890151825560018201915060208501945060208101905061171c565b8683101561175e578489015161175a601f891682611667565b8355505b6001600288020188555050505b505050505050565b7f4552433732313a207472616e73666572206f6620746f6b656e2074686174206960008201527f73206e6f74206f776e6564000000000000000000000000000000000000000000602082015250565b60006117cf602b83610dad565b91506117da82611773565b604082019050919050565b600060208201905081810360008301526117fe816117c2565b9050919050565b7f4552433732313a207472616e7366657220746f20746865207a65726f2061646460008201527f7265737300000000000000000000000000000000000000000000000000000000602082015250565b6000611861602483610dad565b915061186c82611805565b604082019050919050565b6000602082019050818103600083015261189081611854565b9050919050565b7f4e487b7100000000000000000000000000000000000000000000000000000000600052601160045260246000fd5b60006118d182610e54565b91506118dc83610e54565b92508282039050818111156118f4576118f3611897565b5b92915050565b600061190582610e54565b915061191083610e54565b925082820190508082111561192857611927611897565b5b92915050565b7f4552433732313a206d696e7420746f20746865207a65726f2061646472657373600082015250565b6000611964602083610dad565b915061196f8261192e565b602082019050919050565b6000602082019050818103600083015261199381611957565b9050919050565b7f4552433732313a20746f6b656e20616c7265616479206d696e74656400000000600082015250565b60006119d0601c83610dad565b91506119db8261199a565b602082019050919050565b600060208201905081810360008301526119ff816119c3565b905091905056fea2646970667358221220549515a4853577b30f58e6fb76e185e229f12a4561a9221d844242864a499c2864736f6c63430008130033",
  "immutableReferences": {},
  "source": "// SPDX-License-Identifier: MIT\r\npragma solidity ^0.8.0;\r\n\r\nimport \"./ERC721Connector.sol\";\r\n\r\ncontract kryptoBird is ERC721Connector {\r\n\r\n    // array to store our nfts\r\n    string[] public kryptoBirdz;\r\n\r\n    mapping(string => bool) public _kryptoBirdzExists;\r\n\r\n    function mint(string memory _kryptoBird) public {\r\n        require(!_kryptoBirdzExists[_kryptoBird], \"KryptoBird already exists\");\r\n        // uint _id = kryptoBirdz.push(_kryptoBird);  <--- this is deprecated, .push no longer returns the length of the array\r\n        //                                                 but the reference to the new element\r\n\r\n        // we get the current id, which is the length of the array\r\n        uint _id = kryptoBirdz.length;\r\n        // we add the nft to the array\r\n        kryptoBirdz.push(_kryptoBird);\r\n        // we mint the nft to the sender of the function call\r\n        _mint(msg.sender, _id);\r\n\r\n        _kryptoBirdzExists[_kryptoBird] = true;\r\n    }\r\n    constructor() ERC721Connector(\"KryptoBirdz\", \"KRBZ\") {}\r\n}\r\n",
  "sourcePath": "C:\\Users\\damik\\Documents\\nft-marketplace-starter-kit\\src\\contracts\\KryptoBirdz.sol",
  "compiler": {
    "name": "solc",
    "version": "0.8.19+commit.7dd6d404.Emscripten.clang"
  },
  "schemaVersion": "3.4.13",
  "updatedAt": "2023-04-10T17:27:35.847Z",
  "networkType": "ethereum",
  "devdoc": {
    "kind": "dev",
    "methods": {
      "balanceOf(address)": {
        "details": "NFTs assigned to the zero address are considered invalid, and this  function throws for queries about the zero address.",
        "params": {
          "_owner": "An address for whom to query the balance"
        },
        "returns": {
          "_0": "The number of NFTs owned by `_owner`, possibly zero"
        }
      },
      "ownerOf(uint256)": {
        "details": "NFTs assigned to zero address are considered invalid, and queries  about them do throw.",
        "params": {
          "_tokenId": "The identifier for an NFT"
        },
        "returns": {
          "_0": "The address of the owner of the NFT"
        }
      }
    },
    "version": 1
  },
  "userdoc": {
    "kind": "user",
    "methods": {
      "balanceOf(address)": {
        "notice": "Count all NFTs assigned to an owner"
      },
      "ownerOf(uint256)": {
        "notice": "Find the owner of an NFT"
      },
      "totalSupply()": {
        "notice": "return the total supply of the _allTokens array"
      }
    },
    "version": 1
  }
}