{
  "contractName": "kryptoBird",
  "abi": [
    {
      "inputs": [],
      "stateMutability": "nonpayable",
      "type": "constructor"
    },
    {
      "anonymous": false,
      "inputs": [
        {
          "indexed": true,
          "internalType": "address",
          "name": "from",
          "type": "address"
        },
        {
          "indexed": true,
          "internalType": "address",
          "name": "to",
          "type": "address"
        },
        {
          "indexed": true,
          "internalType": "uint256",
          "name": "tokenId",
          "type": "uint256"
        }
      ],
      "name": "Transfer",
      "type": "event"
    },
    {
      "inputs": [
        {
          "internalType": "string",
          "name": "",
          "type": "string"
        }
      ],
      "name": "_kryptoBirdzExists",
      "outputs": [
        {
          "internalType": "bool",
          "name": "",
          "type": "bool"
        }
      ],
      "stateMutability": "view",
      "type": "function",
      "constant": true
    },
    {
      "inputs": [
        {
          "internalType": "address",
          "name": "_owner",
          "type": "address"
        }
      ],
      "name": "balanceOf",
      "outputs": [
        {
          "internalType": "uint256",
          "name": "",
          "type": "uint256"
        }
      ],
      "stateMutability": "view",
      "type": "function",
      "constant": true
    },
    {
      "inputs": [
        {
          "internalType": "uint256",
          "name": "",
          "type": "uint256"
        }
      ],
      "name": "kryptoBirdz",
      "outputs": [
        {
          "internalType": "string",
          "name": "",
          "type": "string"
        }
      ],
      "stateMutability": "view",
      "type": "function",
      "constant": true
    },
    {
      "inputs": [],
      "name": "name",
      "outputs": [
        {
          "internalType": "string",
          "name": "",
          "type": "string"
        }
      ],
      "stateMutability": "view",
      "type": "function",
      "constant": true
    },
    {
      "inputs": [
        {
          "internalType": "uint256",
          "name": "_tokenId",
          "type": "uint256"
        }
      ],
      "name": "ownerOf",
      "outputs": [
        {
          "internalType": "address",
          "name": "",
          "type": "address"
        }
      ],
      "stateMutability": "view",
      "type": "function",
      "constant": true
    },
    {
      "inputs": [],
      "name": "symbol",
      "outputs": [
        {
          "internalType": "string",
          "name": "",
          "type": "string"
        }
      ],
      "stateMutability": "view",
      "type": "function",
      "constant": true
    },
    {
      "inputs": [],
      "name": "totalSupply",
      "outputs": [
        {
          "internalType": "uint256",
          "name": "",
          "type": "uint256"
        }
      ],
      "stateMutability": "view",
      "type": "function",
      "constant": true
    },
    {
      "inputs": [
        {
          "internalType": "string",
          "name": "_kryptoBird",
          "type": "string"
        }
      ],
      "name": "mint",
      "outputs": [],
      "stateMutability": "nonpayable",
      "type": "function"
    }
  ],
  "bytecode": "0x60806040523480156200001157600080fd5b506040518060400160405280600b81526020017f4b727970746f426972647a0000000000000000000000000000000000000000008152506040518060400160405280600481526020017f4b52425a000000000000000000000000000000000000000000000000000000008152508181816000908162000091919062000328565b508060019081620000a3919062000328565b50505050506200040f565b600081519050919050565b7f4e487b7100000000000000000000000000000000000000000000000000000000600052604160045260246000fd5b7f4e487b7100000000000000000000000000000000000000000000000000000000600052602260045260246000fd5b600060028204905060018216806200013057607f821691505b602082108103620001465762000145620000e8565b5b50919050565b60008190508160005260206000209050919050565b60006020601f8301049050919050565b600082821b905092915050565b600060088302620001b07fffffffffffffffffffffffffffffffffffffffffffffffffffffffffffffffff8262000171565b620001bc868362000171565b95508019841693508086168417925050509392505050565b6000819050919050565b6000819050919050565b60006200020962000203620001fd84620001d4565b620001de565b620001d4565b9050919050565b6000819050919050565b6200022583620001e8565b6200023d620002348262000210565b8484546200017e565b825550505050565b600090565b6200025462000245565b620002618184846200021a565b505050565b5b8181101562000289576200027d6000826200024a565b60018101905062000267565b5050565b601f821115620002d857620002a2816200014c565b620002ad8462000161565b81016020851015620002bd578190505b620002d5620002cc8562000161565b83018262000266565b50505b505050565b600082821c905092915050565b6000620002fd60001984600802620002dd565b1980831691505092915050565b6000620003188383620002ea565b9150826002028217905092915050565b6200033382620000ae565b67ffffffffffffffff8111156200034f576200034e620000b9565b5b6200035b825462000117565b620003688282856200028d565b600060209050601f831160018114620003a057600084156200038b578287015190505b6200039785826200030a565b86555062000407565b601f198416620003b0866200014c565b60005b82811015620003da57848901518255600182019150602085019450602081019050620003b3565b86831015620003fa5784890151620003f6601f891682620002ea565b8355505b6001600288020188555050505b505050505050565b611292806200041f6000396000f3fe608060405234801561001057600080fd5b50600436106100885760003560e01c806370a082311161005b57806370a082311461012957806393ab6e561461015957806395d89b4114610189578063d85d3d27146101a757610088565b806306fdde031461008d57806318160ddd146100ab5780632f9f30b5146100c95780636352211e146100f9575b600080fd5b6100956101c3565b6040516100a29190610934565b60405180910390f35b6100b3610255565b6040516100c0919061096f565b60405180910390f35b6100e360048036038101906100de9190610ad3565b610262565b6040516100f09190610b37565b60405180910390f35b610113600480360381019061010e9190610b7e565b610298565b6040516101209190610bec565b60405180910390f35b610143600480360381019061013e9190610c33565b610349565b604051610150919061096f565b60405180910390f35b610173600480360381019061016e9190610b7e565b610400565b6040516101809190610934565b60405180910390f35b6101916104ac565b60405161019e9190610934565b60405180910390f35b6101c160048036038101906101bc9190610ad3565b61053e565b005b6060600080546101d290610c8f565b80601f01602080910402602001604051908101604052809291908181526020018280546101fe90610c8f565b801561024b5780601f106102205761010080835404028352916020019161024b565b820191906000526020600020905b81548152906001019060200180831161022e57829003601f168201915b5050505050905090565b6000600480549050905090565b6009818051602081018201805184825260208301602085012081835280955050505050506000915054906101000a900460ff1681565b6000806002600084815260200190815260200160002060009054906101000a900473ffffffffffffffffffffffffffffffffffffffff169050600073ffffffffffffffffffffffffffffffffffffffff168173ffffffffffffffffffffffffffffffffffffffff1603610340576040517f08c379a000000000000000000000000000000000000000000000000000000000815260040161033790610d32565b60405180910390fd5b80915050919050565b60008073ffffffffffffffffffffffffffffffffffffffff168273ffffffffffffffffffffffffffffffffffffffff16036103b9576040517f08c379a00000000000000000000000000000000000000000000000000000000081526004016103b090610dc4565b60405180910390fd5b600360008373ffffffffffffffffffffffffffffffffffffffff1673ffffffffffffffffffffffffffffffffffffffff168152602001908152602001600020549050919050565b6008818154811061041057600080fd5b90600052602060002001600091509050805461042b90610c8f565b80601f016020809104026020016040519081016040528092919081815260200182805461045790610c8f565b80156104a45780601f10610479576101008083540402835291602001916104a4565b820191906000526020600020905b81548152906001019060200180831161048757829003601f168201915b505050505081565b6060600180546104bb90610c8f565b80601f01602080910402602001604051908101604052809291908181526020018280546104e790610c8f565b80156105345780601f1061050957610100808354040283529160200191610534565b820191906000526020600020905b81548152906001019060200180831161051757829003601f168201915b5050505050905090565b60098160405161054e9190610e20565b908152602001604051809103902060009054906101000a900460ff16156105aa576040517f08c379a00000000000000000000000000000000000000000000000000000000081526004016105a190610e83565b60405180910390fd5b600060088054905090506008829080600181540180825580915050600190039060005260206000200160009091909190915090816105e8919061104f565b506105f3338261062e565b60016009836040516106059190610e20565b908152602001604051809103902060006101000a81548160ff0219169083151502179055505050565b6106388282610645565b61064181610806565b5050565b600073ffffffffffffffffffffffffffffffffffffffff168273ffffffffffffffffffffffffffffffffffffffff16036106b4576040517f08c379a00000000000000000000000000000000000000000000000000000000081526004016106ab9061116d565b60405180910390fd5b6106bd81610832565b156106fd576040517f08c379a00000000000000000000000000000000000000000000000000000000081526004016106f4906111d9565b60405180910390fd5b816002600083815260200190815260200160002060006101000a81548173ffffffffffffffffffffffffffffffffffffffff021916908373ffffffffffffffffffffffffffffffffffffffff1602179055506001600360008473ffffffffffffffffffffffffffffffffffffffff1673ffffffffffffffffffffffffffffffffffffffff168152602001908152602001600020600082825461079f9190611228565b92505081905550808273ffffffffffffffffffffffffffffffffffffffff16600073ffffffffffffffffffffffffffffffffffffffff167fddf252ad1be2c89b69c2b068fc378daa952ba7f163c4a11628f55a4df523b3ef60405160405180910390a45050565b600481908060018154018082558091505060019003906000526020600020016000909190919091505550565b6000806002600084815260200190815260200160002060009054906101000a900473ffffffffffffffffffffffffffffffffffffffff169050600073ffffffffffffffffffffffffffffffffffffffff168173ffffffffffffffffffffffffffffffffffffffff161415915050919050565b600081519050919050565b600082825260208201905092915050565b60005b838110156108de5780820151818401526020810190506108c3565b60008484015250505050565b6000601f19601f8301169050919050565b6000610906826108a4565b61091081856108af565b93506109208185602086016108c0565b610929816108ea565b840191505092915050565b6000602082019050818103600083015261094e81846108fb565b905092915050565b6000819050919050565b61096981610956565b82525050565b60006020820190506109846000830184610960565b92915050565b6000604051905090565b600080fd5b600080fd5b600080fd5b600080fd5b7f4e487b7100000000000000000000000000000000000000000000000000000000600052604160045260246000fd5b6109e0826108ea565b810181811067ffffffffffffffff821117156109ff576109fe6109a8565b5b80604052505050565b6000610a1261098a565b9050610a1e82826109d7565b919050565b600067ffffffffffffffff821115610a3e57610a3d6109a8565b5b610a47826108ea565b9050602081019050919050565b82818337600083830152505050565b6000610a76610a7184610a23565b610a08565b905082815260208101848484011115610a9257610a916109a3565b5b610a9d848285610a54565b509392505050565b600082601f830112610aba57610ab961099e565b5b8135610aca848260208601610a63565b91505092915050565b600060208284031215610ae957610ae8610994565b5b600082013567ffffffffffffffff811115610b0757610b06610999565b5b610b1384828501610aa5565b91505092915050565b60008115159050919050565b610b3181610b1c565b82525050565b6000602082019050610b4c6000830184610b28565b92915050565b610b5b81610956565b8114610b6657600080fd5b50565b600081359050610b7881610b52565b92915050565b600060208284031215610b9457610b93610994565b5b6000610ba284828501610b69565b91505092915050565b600073ffffffffffffffffffffffffffffffffffffffff82169050919050565b6000610bd682610bab565b9050919050565b610be681610bcb565b82525050565b6000602082019050610c016000830184610bdd565b92915050565b610c1081610bcb565b8114610c1b57600080fd5b50565b600081359050610c2d81610c07565b92915050565b600060208284031215610c4957610c48610994565b5b6000610c5784828501610c1e565b91505092915050565b7f4e487b7100000000000000000000000000000000000000000000000000000000600052602260045260246000fd5b60006002820490506001821680610ca757607f821691505b602082108103610cba57610cb9610c60565b5b50919050565b7f4552433732313a206f776e657220717565727920666f72206e6f6e657869737460008201527f656e7420746f6b656e0000000000000000000000000000000000000000000000602082015250565b6000610d1c6029836108af565b9150610d2782610cc0565b604082019050919050565b60006020820190508181036000830152610d4b81610d0f565b9050919050565b7f4552433732313a2062616c616e636520717565727920666f7220746865207a6560008201527f726f206164647265737300000000000000000000000000000000000000000000602082015250565b6000610dae602a836108af565b9150610db982610d52565b604082019050919050565b60006020820190508181036000830152610ddd81610da1565b9050919050565b600081905092915050565b6000610dfa826108a4565b610e048185610de4565b9350610e148185602086016108c0565b80840191505092915050565b6000610e2c8284610def565b915081905092915050565b7f4b727970746f4269726420616c72656164792065786973747300000000000000600082015250565b6000610e6d6019836108af565b9150610e7882610e37565b602082019050919050565b60006020820190508181036000830152610e9c81610e60565b9050919050565b60008190508160005260206000209050919050565b60006020601f8301049050919050565b600082821b905092915050565b600060088302610f057fffffffffffffffffffffffffffffffffffffffffffffffffffffffffffffffff82610ec8565b610f0f8683610ec8565b95508019841693508086168417925050509392505050565b6000819050919050565b6000610f4c610f47610f4284610956565b610f27565b610956565b9050919050565b6000819050919050565b610f6683610f31565b610f7a610f7282610f53565b848454610ed5565b825550505050565b600090565b610f8f610f82565b610f9a818484610f5d565b505050565b5b81811015610fbe57610fb3600082610f87565b600181019050610fa0565b5050565b601f82111561100357610fd481610ea3565b610fdd84610eb8565b81016020851015610fec578190505b611000610ff885610eb8565b830182610f9f565b50505b505050565b600082821c905092915050565b600061102660001984600802611008565b1980831691505092915050565b600061103f8383611015565b9150826002028217905092915050565b611058826108a4565b67ffffffffffffffff811115611071576110706109a8565b5b61107b8254610c8f565b611086828285610fc2565b600060209050601f8311600181146110b957600084156110a7578287015190505b6110b18582611033565b865550611119565b601f1984166110c786610ea3565b60005b828110156110ef578489015182556001820191506020850194506020810190506110ca565b8683101561110c5784890151611108601f891682611015565b8355505b6001600288020188555050505b505050505050565b7f4552433732313a206d696e7420746f20746865207a65726f2061646472657373600082015250565b60006111576020836108af565b915061116282611121565b602082019050919050565b600060208201905081810360008301526111868161114a565b9050919050565b7f4552433732313a20746f6b656e20616c7265616479206d696e74656400000000600082015250565b60006111c3601c836108af565b91506111ce8261118d565b602082019050919050565b600060208201905081810360008301526111f2816111b6565b9050919050565b7f4e487b7100000000000000000000000000000000000000000000000000000000600052601160045260246000fd5b600061123382610956565b915061123e83610956565b9250828201905080821115611256576112556111f9565b5b9291505056fea2646970667358221220247d15d8baed9eb81f6715179c3edc69f0f8ab1e4815383c111f0a818dbbb3b364736f6c63430008130033",
  "immutableReferences": {},
  "source": "// SPDX-License-Identifier: MIT\r\npragma solidity ^0.8.0;\r\n\r\nimport \"./ERC721Connector.sol\";\r\n\r\ncontract kryptoBird is ERC721Connector {\r\n\r\n    // array to store our nfts\r\n    string[] public kryptoBirdz;\r\n\r\n    mapping(string => bool) public _kryptoBirdzExists;\r\n\r\n    function mint(string memory _kryptoBird) public {\r\n        require(!_kryptoBirdzExists[_kryptoBird], \"KryptoBird already exists\");\r\n        // uint _id = kryptoBirdz.push(_kryptoBird);  <--- this is deprecated, .push no longer returns the length of the array\r\n        //                                                 but the reference to the new element\r\n\r\n        // we get the current id, which is the length of the array\r\n        uint _id = kryptoBirdz.length;\r\n        // we add the nft to the array\r\n        kryptoBirdz.push(_kryptoBird);\r\n        // we mint the nft to the sender of the function call\r\n        _mint(msg.sender, _id);\r\n\r\n        _kryptoBirdzExists[_kryptoBird] = true;\r\n    }\r\n    constructor() ERC721Connector(\"KryptoBirdz\", \"KRBZ\") {}\r\n}\r\n",
  "sourcePath": "C:\\Users\\damik\\Documents\\nft-marketplace-starter-kit\\src\\contracts\\KryptoBirdz.sol",
  "compiler": {
    "name": "solc",
    "version": "0.8.19+commit.7dd6d404.Emscripten.clang"
  },
  "schemaVersion": "3.4.13",
  "updatedAt": "2023-04-10T14:52:49.778Z",
  "networkType": "ethereum",
  "devdoc": {
    "kind": "dev",
    "methods": {
      "balanceOf(address)": {
        "details": "NFTs assigned to the zero address are considered invalid, and this  function throws for queries about the zero address.",
        "params": {
          "_owner": "An address for whom to query the balance"
        },
        "returns": {
          "_0": "The number of NFTs owned by `_owner`, possibly zero"
        }
      },
      "ownerOf(uint256)": {
        "details": "NFTs assigned to zero address are considered invalid, and queries  about them do throw.",
        "params": {
          "_tokenId": "The identifier for an NFT"
        },
        "returns": {
          "_0": "The address of the owner of the NFT"
        }
      },
      "totalSupply()": {
        "returns": {
          "_0": "A count of valid NFTs tracked by this contract, where each one of  them has an assigned and queryable owner not equal to the zero address"
        }
      }
    },
    "version": 1
  },
  "userdoc": {
    "kind": "user",
    "methods": {
      "balanceOf(address)": {
        "notice": "Count all NFTs assigned to an owner"
      },
      "ownerOf(uint256)": {
        "notice": "Find the owner of an NFT"
      },
      "totalSupply()": {
        "notice": "Count NFTs tracked by this contract"
      }
    },
    "version": 1
  }
}